{
  "contractName": "LoanContract",
  "abi": [
    {
      "inputs": [
        {
          "internalType": "address",
          "name": "_borrower",
          "type": "address"
        },
        {
          "internalType": "address",
          "name": "_lender",
          "type": "address"
        },
        {
          "internalType": "uint256",
          "name": "_amount",
          "type": "uint256"
        }
      ],
      "stateMutability": "nonpayable",
      "type": "constructor"
    },
    {
      "anonymous": false,
      "inputs": [
        {
          "indexed": false,
          "internalType": "address",
          "name": "borrower",
          "type": "address"
        },
        {
          "indexed": false,
          "internalType": "address",
          "name": "lender",
          "type": "address"
        },
        {
          "indexed": false,
          "internalType": "uint256",
          "name": "amount",
          "type": "uint256"
        }
      ],
      "name": "LoanCreated",
      "type": "event"
    },
    {
      "inputs": [],
      "name": "amount",
      "outputs": [
        {
          "internalType": "uint256",
          "name": "",
          "type": "uint256"
        }
      ],
      "stateMutability": "view",
      "type": "function",
      "constant": true
    },
    {
      "inputs": [],
      "name": "borrower",
      "outputs": [
        {
          "internalType": "address",
          "name": "",
          "type": "address"
        }
      ],
      "stateMutability": "view",
      "type": "function",
      "constant": true
    },
    {
      "inputs": [],
      "name": "lender",
      "outputs": [
        {
          "internalType": "address",
          "name": "",
          "type": "address"
        }
      ],
      "stateMutability": "view",
      "type": "function",
      "constant": true
    },
    {
      "inputs": [],
      "name": "getBorrower",
      "outputs": [
        {
          "internalType": "address",
          "name": "",
          "type": "address"
        }
      ],
      "stateMutability": "view",
      "type": "function",
      "constant": true
    },
    {
      "inputs": [],
      "name": "getLender",
      "outputs": [
        {
          "internalType": "address",
          "name": "",
          "type": "address"
        }
      ],
      "stateMutability": "view",
      "type": "function",
      "constant": true
    },
    {
      "inputs": [],
      "name": "getAmount",
      "outputs": [
        {
          "internalType": "uint256",
          "name": "",
          "type": "uint256"
        }
      ],
      "stateMutability": "view",
      "type": "function",
      "constant": true
    },
    {
      "inputs": [],
      "name": "getLoanDetails",
      "outputs": [
        {
          "internalType": "address",
          "name": "",
          "type": "address"
        },
        {
          "internalType": "address",
          "name": "",
          "type": "address"
        },
        {
          "internalType": "uint256",
          "name": "",
          "type": "uint256"
        }
      ],
      "stateMutability": "view",
      "type": "function",
      "constant": true
    }
  ],
  "bytecode": "0x608060405234801561001057600080fd5b5060405161059c38038061059c83398181016040528101906100329190610127565b826000806101000a81548173ffffffffffffffffffffffffffffffffffffffff021916908373ffffffffffffffffffffffffffffffffffffffff16021790555081600160006101000a81548173ffffffffffffffffffffffffffffffffffffffff021916908373ffffffffffffffffffffffffffffffffffffffff160217905550806002819055507f239918703fc8dd9af4a7df82136ff89b353e3bed6fb86c9952ca3e8698a7d6338383836040516100ed93929190610194565b60405180910390a1505050610235565b60008151905061010c81610207565b92915050565b6000815190506101218161021e565b92915050565b60008060006060848603121561013c57600080fd5b600061014a868287016100fd565b935050602061015b868287016100fd565b925050604061016c86828701610112565b9150509250925092565b61017f816101cb565b82525050565b61018e816101fd565b82525050565b60006060820190506101a96000830186610176565b6101b66020830185610176565b6101c36040830184610185565b949350505050565b60006101d6826101dd565b9050919050565b600073ffffffffffffffffffffffffffffffffffffffff82169050919050565b6000819050919050565b610210816101cb565b811461021b57600080fd5b50565b610227816101fd565b811461023257600080fd5b50565b610358806102446000396000f3fe608060405234801561001057600080fd5b506004361061007d5760003560e01c8063a3b9e39d1161005b578063a3b9e39d146100dc578063aa8c217c146100fc578063bcead63e1461011a578063d321fe29146101385761007d565b80631cb0c3e7146100825780637df1f1b9146100a05780639861f3e5146100be575b600080fd5b61008a610156565b6040516100979190610279565b60405180910390f35b6100a861017f565b6040516100b59190610279565b60405180910390f35b6100c66101a3565b6040516100d39190610279565b60405180910390f35b6100e46101cd565b6040516100f393929190610294565b60405180910390f35b610104610225565b60405161011191906102cb565b60405180910390f35b61012261022b565b60405161012f9190610279565b60405180910390f35b610140610251565b60405161014d91906102cb565b60405180910390f35b60008060009054906101000a900473ffffffffffffffffffffffffffffffffffffffff16905090565b60008054906101000a900473ffffffffffffffffffffffffffffffffffffffff1681565b6000600160009054906101000a900473ffffffffffffffffffffffffffffffffffffffff16905090565b60008060008060009054906101000a900473ffffffffffffffffffffffffffffffffffffffff16600160009054906101000a900473ffffffffffffffffffffffffffffffffffffffff16600254925092509250909192565b60025481565b600160009054906101000a900473ffffffffffffffffffffffffffffffffffffffff1681565b6000600254905090565b610264816102e6565b82525050565b61027381610318565b82525050565b600060208201905061028e600083018461025b565b92915050565b60006060820190506102a9600083018661025b565b6102b6602083018561025b565b6102c3604083018461026a565b949350505050565b60006020820190506102e0600083018461026a565b92915050565b60006102f1826102f8565b9050919050565b600073ffffffffffffffffffffffffffffffffffffffff82169050919050565b600081905091905056fea26469706673582212206287c952bc2b15e464af0aa32b71ab66e4e20c5cf935b23db488bc44806003e864736f6c63430008000033",
  "immutableReferences": {},
  "source": "// SPDX-License-Identifier: MIT\r\npragma solidity ^0.8.0;\r\n\r\ncontract LoanContract {\r\n\r\n    address public borrower;\r\n    address public lender;\r\n    uint256 public amount;\r\n\r\n    event LoanCreated(address borrower, address lender, uint256 amount);\r\n\r\n    // Constructor to initialize loan details\r\n    constructor(address _borrower, address _lender, uint256 _amount) {\r\n        borrower = _borrower;\r\n        lender = _lender;\r\n        amount = _amount;\r\n        // Emit the LoanCreated event\r\n        emit LoanCreated(_borrower, _lender, _amount);\r\n    }\r\n\r\n    function getBorrower() public view returns (address) {\r\n        return borrower;\r\n    }\r\n\r\n    function getLender() public view returns (address) {\r\n        return lender;\r\n    }\r\n\r\n    function getAmount() public view returns (uint256) {\r\n        return amount;\r\n    }\r\n\r\n    // Function to get loan details\r\n    function getLoanDetails() public view returns (address, address, uint256) {\r\n        return (borrower, lender, amount);\r\n    }\r\n}\r\n",
  "sourcePath": "C:\\Users\\mingx\\PycharmProjects\\trufflecontract\\contracts\\SimpleContract.sol",
  "compiler": {
    "name": "solc",
    "version": "0.8.0+commit.c7dfd78e.Emscripten.clang"
  },
  "schemaVersion": "3.4.16",
  "updatedAt": "2024-12-01T18:02:38.661Z",
  "networkType": "ethereum",
  "devdoc": {
    "kind": "dev",
    "methods": {},
    "version": 1
  },
  "userdoc": {
    "kind": "user",
    "methods": {},
    "version": 1
  }
}